{
  "contractName": "SimpleStorage",
  "abi": [
    {
      "constant": true,
      "inputs": [],
      "name": "data",
      "outputs": [
        {
          "internalType": "uint256",
          "name": "",
          "type": "uint256"
        }
      ],
      "payable": false,
      "stateMutability": "view",
      "type": "function"
    },
    {
      "constant": false,
      "inputs": [
        {
          "internalType": "uint256",
          "name": "_data",
          "type": "uint256"
        }
      ],
      "name": "updateData",
      "outputs": [],
      "payable": false,
      "stateMutability": "nonpayable",
      "type": "function"
    },
    {
      "constant": true,
      "inputs": [],
      "name": "readData",
      "outputs": [
        {
          "internalType": "uint256",
          "name": "",
          "type": "uint256"
        }
      ],
      "payable": false,
      "stateMutability": "view",
      "type": "function"
    }
  ],
  "bytecode": "0x608060405234801561001057600080fd5b5060f28061001f6000396000f3fe6080604052348015600f57600080fd5b5060043610603c5760003560e01c806309e9600814604157806373d4a13a14606c578063bef55ef3146088575b600080fd5b606a60048036036020811015605557600080fd5b810190808035906020019092919050505060a4565b005b607260ae565b6040518082815260200191505060405180910390f35b608e60b4565b6040518082815260200191505060405180910390f35b8060008190555050565b60005481565b6000805490509056fea265627a7a723158204372ca637f44ff122aeee6bf430ed2effe79c8177355778fc604be1bde147d1e64736f6c63430005100032",
  "source": "pragma solidity >=0.4.22 <0.9.0;\r\n\r\ncontract SimpleStorage {\r\n  uint public data;\r\n\r\n  function updateData(uint _data) external {\r\n    data = _data;\r\n  }\r\n\r\n  function readData() external view returns(uint) {\r\n    return data;\r\n  }\r\n}",
  "sourcePath": "C:/code/bebo/contracts/SimpleStorage.sol",
  "compiler": {
    "name": "solc",
    "version": "0.5.16+commit.9c3226ce.Emscripten.clang"
  },
  "schemaVersion": "3.3.4",
  "updatedAt": "2021-04-23T02:18:41.646Z",
  "networkType": "ethereum",
  "devdoc": {
    "methods": {}
  },
  "userdoc": {
    "methods": {}
  }
}